:020000040800F2
:104000000050002071EE0008A9C30008ABC30008EF
:10401000ADC30008AFC30008B1C300080000000032
:10402000000000000000000000000000B5C3000810
:10403000B3C3000800000000B7C30008E9910008FE
:10404000B9C30008BBC30008BDC30008BFC3000854
:10405000C1C30008C3C30008C5C30008C7C3000824
:10406000C9C30008CBC30008CDC30008000000008E
:104070000000000000000000000000000000000040
:104080000000000000000000DDC30008DFC30008DE
:10409000EDC30008FDC300080DC400081DC40008DE
:1040A0001FC4000821C4000823C4000825C4000858
:1040B00027C4000829C400082BC400082DC4000828
:1040C0002FC4000831C4000833C4000835C40008F8
:1040D00037C4000839C400086D8A00083DC40008D0
:1040E0003FC4000841C4000843C4000800000000A9
:1040F00000000000000000000000000000000000C0
:0C41000000000000000000005FF800005C
:1041100030BF704720BF704740BF7047BFF36F8FFD
:104120007047BFF34F8F7047BFF35F8F704701DF5A
:104130007047EFF31480704780F31488BFF36F8FDC
:104140007047EFF30980704780F309887047EFF3F9
:104150000880704780F30888704772B6704762B66F
:10416000704771B6704761B6704780F31188704729
:10417000EFF31280704740BA704700BA70470000F2
:104180000C4B10B59B680C4813F400440B490C4AC7
:104190000C4B07D0012404700B4808600B491860D1
:1041A000116010BD04700A4808600A4911600A4A8B
:1041B0001A6010BD00080140E81000204C110020DA
:1041C00004130020C4110020D5910008AF96000808
:1041D000498D0008E98B0008998C00082DE9F74FFC
:1041E000624F6348012109F04BFA042001210324A6
:1041F00009F02EFD102642F20263384601A94FF065
:104200000408ADF804308DF806408DF8076009F019
:10421000A8F940F202637B610DEB08014CF2080340
:104220003846ADF8043001254FF04809DFF850A1B9
:104230008DF807808DF8064009F093F90DEB080121
:1042400038468DF80790ADF804508DF8064009F017
:1042500088F90820294609F0FBFC41F6FD4B504641
:104260000DEB0801ADF804B08DF806408DF807603D
:1042700009F077F9CAF810B03046294609F0E8FC91
:104280004FF0FF0A0DEB08013A488DF807804FF414
:104290007F4BADF804A08DF8064009F062F90DEBF4
:1042A00008018DF807903348DFF8D890ADF804B0D6
:1042B0008DF8064009F055F92020294609F0C8FC80
:1042C0004FF6FF7348460DEB0801ADF804308DF84A
:1042D00006408DF8076009F044F9C9F810B0402095
:1042E000C9F814A0294609F0B3FC8DF80780DFF85F
:1042F000988040F2FF33404601A9ADF804304FF4F6
:104300007C498DF8064009F02CF9404601A9ADF82A
:1043100004908DF806408DF8076009F022F92946CF
:10432000C8F81490144809F0ABF900230A211A4682
:104330004FF400507861BC683861B868640458BFB5
:104340000132400448BF01330139F1D10A2A0B4A36
:1043500003D10A2B01D1012300E0002304480121ED
:10436000137009F08DF903B0BDE8F08F000801402B
:104370000002300000100140000430006C110020E9
:10438000000C01400014014000180140124B82B0A3
:104390001B78F3B1114B4FF400625A614FF4806205
:1043A0001A610022019201990D4A914202D8019AA4
:1043B0000132F7E74FF400621A614FF480625A61EC
:1043C00000230193019A064B9A42E3D8019B0133E3
:1043D000F7E702B0704700BF6C110020000C0140ED
:1043E0003F0D0300072816D8DFE800F00406080A8E
:1043F0000C0E101201220CE002220AE0042208E056
:10440000082206E0102204E0202202E0402200E020
:104410008022014B5A61704700140140072816D8CA
:10442000DFE800F00406080A0C0E101201220CE06E
:1044300002220AE0042208E0082206E0102204E03A
:10444000202202E0402200E08022014B1A617047E6
:104450000014014038B50546002445FA04F3DB0793
:10446000E0B202D5FFF7DAFF01E0FFF7BBFF01344E
:10447000082CF2D138BD08B507282ED8DFE800F0A7
:1044800004060B10151E232800200FE0144B98681B
:10449000C0F3400008BD124B9868C0F3800008BD0F
:1044A0000F4B9868C0F3C00008BD042004F084FFDF
:1044B000B0F5006F94BF0020012008BD084B98683C
:1044C000C0F3401008BD064B9868C0F3801008BDCB
:1044D000034B9868C0F3C01008BD002008BD00BFA2
:1044E0000010014007282DD8DFE800F004090E1362
:1044F000181D2227144BD86800F001007047124B9A
:10450000D868C0F3400070470F4BD868C0F38000F4
:1045100070470D4BD868C0F3C00070470A4BD8688D
:10452000C0F300107047084BD868C0F340107047C4
:10453000054BD868C0F380107047034BD868C0F3B0
:10454000C0107047002070470014014038B50024A7
:104550002546E0B2FFF78FFF18B10123A3401D43AA
:10456000EDB20134082CF4D1284638BD052822D8F4
:10457000DFE800F003080D12171C104B986800F0DC
:10458000010070470D4B9868C0F3400070470B4B1B
:104590009868C0F380007047084B9868C0F3C0006B
:1045A0007047064B9868C0F300107047034B98683B
:1045B000C0F3401070470020704700BF0018014052
:1045C000052802D8C90805F09FBD704708B109F059
:1045D0007DB909F083B962B6704772B67047C0B250
:1045E00005F0C0BEC0B205F0ADBE084B10F0010F23
:1045F0004FF0100214BF1A615A6110F0020F4FF011
:10460000200214BF1A615A61704700BF000C0140BC
:10461000074B9A88C2F30722172A06D19A88D2B28A
:10462000DE2A02D1188980B270470020704700BF8F
:10463000006C0040154B9A6812F4807F9A680CBF9A
:104640008020002091059A685CBF40F04000C0B215
:1046500052059A6858BF40F0200011059A6858BF6B
:1046600040F01000D2049A6858BF40F0080091044E
:104670009A689B6858BF40F00400520458BF40F04D
:1046800002001B0458BF40F00100704700100140B9
:1046900008B5082004F090FE5E2804D9064B1A786D
:1046A0004AB9012206E0082004F086FE542802D808
:1046B000014B00221A7008BD60050020034B1878DA
:1046C000013801288CBF00200120704760050020C0
:1046D000034B1878012806BF02221A700020704789
:1046E00060050020002070472DE9F04F4FF4804016
:1046F00089B0012109F0B8FA434C0120014609F0C4
:10470000A7FA03264FF420434FF0180A204602A9C7
:10471000ADF808308DF80BA04FF0040B8DF80A604F
:1047200008F01FFF4FF48043204602A9ADF808307F
:104730008DF80A608DF80BB008F013FF0823ADF870
:104740001830324B002401254FF482794FF00208D3
:104750004FF40077184603A9ADF80C40ADF81040AF
:10476000ADF81A40ADF81C400193ADF80E90ADF8CD
:104770001280ADF81450ADF8167009F021FB019BC2
:104780002946184609F0A2FB29464FF4805009F04B
:104790005FFA2846214608F073FF8DF80BA0DFF87A
:1047A00074A0A023504602A9ADF808308DF80A6025
:1047B00008F0D7FE4023504602A9ADF808308DF826
:1047C0000A608DF80BB008F0CCFEADF80C40ADF8E7
:1047D0001040ADF81A40ADF81C400D4C282320467F
:1047E00003A9ADF81830ADF80E90ADF81280ADF811
:1047F0001450ADF8167009F0E3FA2046294609F086
:1048000065FB09B0BDE8F08F000C014000380040A6
:10481000003001400008014070B504460E461546C0
:1048200008287BD8DFE800F005101316191C1F0AB2
:104830000D003C4B4FF480525A6119E04FF4007266
:1048400013E04FF4807210E04FF480620DE04FF4FB
:1048500000620AE04FF4805207E04FF4005204E097
:104860004FF4804201E04FF400422F4B5A6110E0B8
:104870002E48022109F0AEFB0028F9D02B48314622
:1048800009F054FB2948012109F0A4FB0028F9D0C4
:1048900019E02748022109F09DFB0028F9D024489F
:1048A000314609F043FB2248012109F093FB00281F
:1048B000F9D045B3082C31D8DFE804F006111417FD
:1048C0001A1D200B0E0015B3164B4FF480521A61BF
:1048D0001DE04FF4007213E04FF4807210E04FF4CB
:1048E00080620DE04FF400620AE04FF4805207E06E
:1048F0004FF4005204E04FF4804201E04FF40042D4
:10490000094B1A6105E014B1082C09D801E00748E9
:1049100000E0074809F00CFBC0B270BD002070BD7C
:10492000284670BD000C01400014014000380040D2
:104930000030014037B5B74DA8786B7805282C4674
:1049400001D904223EE3A32B00F09A8200F28A8070
:10495000842B00F0238128D8062B00F0828110D808
:10496000022B00F01B8106D8002B00F0F480012BF5
:1049700000F0FF8025E3042B00F0508140F23881E5
:1049800066E1802B00F0E78009D80C2B00F08581D0
:104990000D2B00F09C81072B40F013836FE1822BDD
:1049A00000F0AF8140F2E58038E1932B00F08F8179
:1049B00026D8872B00F0B68106D8852B00F0188109
:1049C000862B00F04581FCE28C2B00F0B6818D2B0C
:1049D00000F0BE818A2B40F0F48202288ABFC11EFB
:1049E0004101490194BF0023012341F014011846FD
:1049F000C9B201AA06F04CFFEB788DF80630CDE184
:104A00009A2B00F0D7811FD8952B00F0AC81C0F015
:104A10004481992B40F0D58202288ABFC11E4101F2
:104A2000490194BF0023012341F01801184601AA4F
:104A3000C9B206F02DFFEA789DF8053002F00F02AA
:104A400023F00F031343CBE1A12B00F00D8200F202
:104A50001182A02B40F0B582D5F80310C9B205F041
:104A6000FFF9B1E2B22B00F0858233D8AA2B00F017
:104A7000568215D8A62B00F0278206D8A42B00F06A
:104A80000582A52B00F011829BE2A82B00F03B824F
:104A900000F23F82D5F80310C9B205F04DFA93E257
:104AA000AE2B00F055820AD8AC2B00F03E8200F20B
:104AB0004982D5F80310C9B205F0D4FA84E2B02BCC
:104AC00000F04C8200F25082D5F80310C9B205F014
:104AD00041FB79E2C22B00F09B8118D8B72B00F084
:104AE000628206D8B52B00F04B82B62B00F04F82C5
:104AF00067E2C02B00F0C38000F28481B82B40F045
:104B00006082D5F80310C9B205F0EEF95CE2CC2B57
:104B100000F095810FD8C72B00F0A380C82B00F0C0
:104B20007D81C32B40F04D823B4B03EB4010D5F809
:104B30000330436048E2D52B00F08881D62B00F08B
:104B40008C81D42B40F03D82334B03EB4010D5F8E1
:104B50000330436138E205F079FC40B9A1780229BD
:104B600088BF033994BF00200120490110E00622CC
:104B700028E205F06BFC0028F9D1A178022988BF52
:104B800003394FEA411194BF0020012041F0020196
:104B9000C9B2D4F8032006F0DEFD15E205F056FC9C
:104BA0000028E4D1A178D4F80320022988BF033972
:104BB0004FEA411141F0080194BF00200120C9B221
:104BC00006F0B7FDA178D4F80320022988BF033985
:104BD0004FEA411141F0060194BF00200120C9B203
:104BE000002AB8BF524206F0A4FDA37801212CE0B0
:104BF00005F02CFC0028BAD1A178022988BF03391E
:104C00004FEA411141F00A0194BF00200120C9B2CE
:104C100083E000BF940A0020C811002002288ABF48
:104C2000C11E4101490194BF0023012341F0060147
:104C3000C9B21846D4F8032006F07BFDA378D4F857
:104C40000310A74A42F823100021A64AD154BBE121
:104C5000D4F8031006F0A3FEA378D4F80310A24AF8
:104C6000F0E7A24B01221A54A14BE17803EB401369
:104C70005972A04B1B5C022B40F0A6819EE19B4B1E
:104C800001221A549A4BE17803EB40139972994B25
:104C90001B5C002B40F0988190E102288ABFC11E66
:104CA0004101490194BF0023012341F0140118463A
:104CB00001AAC9B206F0ECFDD4F803209DF8053036
:104CC00012B143F0020367E023F0020364E002281C
:104CD0008ABFC11E4101490194BF0023012341F055
:104CE0001401184601AAC9B206F0D2FDD4F8032077
:104CF0009DF8053012B143F001034DE023F00103AC
:104D00004AE002288ABFC11E4101490194BF002325
:104D1000012341F00401C9B21846D4F8032006F07B
:104D200008FD51E102288ABFC11E4101490194BF1B
:104D30000023012341F00E01EDE76D4BE97803EB11
:104D40004013D972C1F10801C9B205F079F83BE10D
:104D500002288ABFC11E4101490194BF00230123DB
:104D600041F01A01D7E702288ABFC11E410149015B
:104D700094BF0023012341F01401184601AAC9B2CF
:104D800006F086FDD5F803209DF8053012B143F0FA
:104D9000040301E023F004038DF80530A178022913
:104DA00088BF03394FEA411194BF0020012041F030
:104DB000140122E002288ABFC11E4101490194BFAB
:104DC0000023012341F01801184601AAC9B206F0D8
:104DD0005FFD9DF80530EA7803F00F0343EA021304
:104DE000A1788DF80530022988BF03394FEA4111B7
:104DF00094BF0020012041F01801C9B201AA06F0B9
:104E000073FCE1E03A4B03EB4010EB780372DBE01C
:104E1000D5F80320364B40011A50D5E0334B012220
:104E20001A54334BD5F8032003EB4013DA77314B98
:104E30001B5C032B40F0C8802F4BD978BEE02C4B75
:104E400003EB4010D5F80330C381BDE0284B03EBE2
:104E50004010D5F803308377B6E0254B03EB4010C4
:104E6000D5F803308383AFE0D5F80310C9B205F05D
:104E700005F8A9E0D5F80310C9B205F021F8A3E0C0
:104E8000D5F80310C9B205F025F89DE005F084F8C7
:104E9000D5F8031020B9A878C9B205F02FF893E02F
:104EA000A878C9B205F052F88EE005F075F8D5F88B
:104EB000031020B9A878C9B205F02AF884E0A878D0
:104EC000C9B205F057F87FE005F066F8AB78D5F881
:104ED000031098B91846C9B205F024F874E000BF71
:104EE000D010002064050020B80C0020F41200202F
:104EF000C8110020FC120020940A00201846C9B2F4
:104F000005F02EF860E0D5F80310C9B205F08CF872
:104F10005AE0D5F80310C9B205F090F854E0D5F87E
:104F20000310C9B205F094F84EE0D5F80310C9B2E9
:104F300005F0A2F8AA78254B03EBC203D5F80320AD
:104F40005A7141E0D5F80310C9B205F0C9F83BE049
:104F5000D5F8031049B205F0CDF835E0D5F80310C7
:104F6000C9B205F001F92FE0D5F80310C9B205F078
:104F700005F929E0D5F80310C9B205F009F923E0D5
:104F8000134B03EB4010D5F8033083611CE0D5F8D8
:104F900003200E4B43F83020B2B903EBC00359791C
:104FA00005F06AF810E0094BD5F8032003EBC003C5
:104FB0001A71084B1B5C012B06D1E978FFF700FB47
:104FC00002E00322044B1A7003B030BD0C11002024
:104FD000C8110020FC120020AC0C002037B57F4D1A
:104FE0007F4CA8786B78052802D904232370D5E27A
:104FF000D62B00F2C182DFE813F0D700E200F50003
:1050000000010B010D010F0114011901520173017F
:105010005A012A013E01BF02BF02BF02BF02BF0206
:10502000BF02BF02BF02BF02BF02BF02BF02BF0278
:10503000BF02BF02BF02BF02BF02BF02BF02BF0268
:10504000BF02BF02BF02BF02BF02BF02BF02BF0258
:10505000BF02BF02BF02BF02BF02BF02BF02BF0248
:10506000BF02BF02BF02BF02BF02BF02BF02BF0238
:10507000BF02BF02BF02BF02BF02BF02BF02BF0228
:10508000BF02BF02BF02BF02BF02BF02BF02BF0218
:10509000BF02BF02BF02BF02BF02BF02BF02BF0208
:1050A000BF02BF02BF02BF02BF02BF02BF02BF02F8
:1050B000BF02BF02BF02BF02BF02BF02BF02BF02E8
:1050C000BF02BF02BF02BF02BF02BF02BF02BF02D8
:1050D000BF02BF02BF02BF02BF02BF02BF02BF02C8
:1050E000BF02BF02BF02BF02BF02BF02BF02BF02B8
:1050F000BF02BF02BF02BF02BF02D700E2008401AD
:105100000B01F50000010D018F01BF02BF029A01E2
:10511000BF02AC01B101BF02BF02BF02BF02BF02AA
:105120003E012A01C001BF02BF02BF02D401E80153
:105130005A0173011901BF02BF0240024302460235
:105140005D0260026C0277028202850288028B0295
:105150008E029102960299029C029F02A202A5026F
:10516000A802AB02AE02B302B702BC02BF02BF028A
:10517000BF02BF02BF02BF02BF021401FB01000257
:10518000040209020B02BF020F010D02BF02BF029F
:10519000BF021202BF0217021B022F02BF02BF0290
:1051A000BF02310236023B02022894BF00230123D2
:1051B00002D84001C1B20DE0C11E490109E0022838
:1051C0008ABFC11E4101490194BF0023012341F060
:1051D0000201C9B2184606F0CDFD74E1940A002020
:1051E000AC0C002002288ABFC11E4101490194BFB6
:1051F0000023012341F00801BAE002288ABFC11E42
:105200004101490194BF0023012341F00A01AFE0AD
:105210009E4B0AE19E4B08E19E4B03EB4010437A04
:105220005CE09C4B03EB4010837A57E0022894BF6C
:105230000020012006F01FFBAB780122022B92BF59
:105240009340033B5B0002FA03F3034243E002286E
:105250008ABFC11E4101490194BF0023012341F0CF
:1052600014011846C9B201AA06F012FB9DF80530D8
:10527000C3F3400332E002288ABFC11E4101490145
:1052800094BF0023012341F014011846C9B201AABA
:1052900006F0FEFA9DF8053003F001031EE0022837
:1052A00094BF01300230C0B2FFF7E5F80BE10228ED
:1052B00094BF002001207C2101AA06F0E9FAAB7816
:1052C0009DF80610022B4FF0020200D9033B5B0051
:1052D00002FA03F30B420CBF0023012363604DE18C
:1052E000022894BF002001207C2101AA06F0D0FAF8
:1052F000AB789DF80610022B4FF00102E6D89340E0
:10530000E6E702288ABFC11E4101490194BF00237C
:10531000012341F004012BE002288ABFC11E410194
:10532000490194BF0023012341F00E0120E002282F
:105330008ABFC11E4101490194BF0023012341F0EE
:1053400014011846C9B201AA06F0A2FA9DF8063067
:10535000C4E704F09DFDC0F10800B4E002288ABF54
:10536000C11E4101490194BF0023012341F01A01EC
:10537000C9B2184606F0A3FAA5E002288ABFC11EEA
:105380004101490194BF0023012341F01401184653
:10539000C9B201AA06F07CFA9DF80530C3F3800378
:1053A0009CE702288ABFC11E4101490194BF002326
:1053B000012341F018011846C9B201AA06F068FAA3
:1053C0009DF8053003F00F0388E702288ABFC11E4D
:1053D0004101490194BF0023012341F018011846FF
:1053E000C9B201AA06F054FA9DF805301B0975E709
:1053F000284B03EB4010037A70E7264B40011B5803
:105400006CE7244B03EB4010436867E7224B0CE04A
:10541000224B0AE01F4B03EB4010C37F5EE71D4B9E
:1054200003EB4010C38959E71D4B53F8203055E773
:10543000AB781C4A0021D05C616010B11A4801258C
:105440004560D154194AD15C19B1616841F002013B
:1054500061600021D15491E0154B7AE00D4B03EBD4
:10546000401043693AE70B4B03EB4010837F35E76D
:10547000084B03EB4010838B30E704F011FD22E072
:1054800004F016FD1FE004F07FFD1CE0D0100020AA
:10549000B80C0020C8110020EC1000208C12002055
:1054A00054110020B8110020AC0C00204211002043
:1054B000BE11002004F070FD05E004F06DFD20B980
:1054C000A87804F079FD606058E0A87804F094FDB5
:1054D000F9E704F061FD18B9A87804F075FDF2E76A
:1054E000A87804F099FDEEE704F056FD18B9A87805
:1054F00004F072FDE7E7A87804F086FDE3E704F026
:1055000073FDE0E704F0C2FDDDE704F0C9FDDAE772
:1055100004F0CEFDD7E704F0D3FDD4E7204B03EB36
:10552000C0004379DAE604F0F9FDCCE704F000FEB0
:10553000C9E704F065FEC6E704F06AFEC3E704F0BD
:105540006FFEC0E704F074FEBDE704F081FEBAE729
:10555000144B1B5CC2E6144B03EB40108369BDE6A1
:105560000F4B53F83030B9E60D4B03EBC000037915
:10557000B4E604F019FDA6E7032323700B4B1B7858
:1055800063B10B4B62681A600A4B1AB91A6842F091
:10559000080202E01A6822F008021A6003B030BD67
:1055A0000C11002006110020C8110020A70C0020BB
:1055B000980C00209C0A002038B5AF4A9578144614
:1055C000022D00F05281032D00F06881002D40F083
:1055D000088253784F2B00F0A58037D8462B78D01F
:1055E00014D8422B63D009D8402B5CD0412B40F01B
:1055F000F681D178A14B002019705CE0442B9F4AC2
:105600005DD062D8E1780420117154E0492B73D049
:105610000AD8472B68D0482B40F0E181D3789749CE
:10562000262001F8263FD6E04C2B71D04D2B74D0AC
:105630004B2B40F0D481914CD1780320E17002F0E3
:10564000C6FFE078BDE8384003F0A4BA572B00F05D
:10565000D08012D8522B00F0968005D8502B7ED0E7
:10566000512B00F08180BAE1542B00F0A980C0F0EA
:105670009180552B00F0B180B1E1832B00F0E780E1
:1056800006D8592B00F0BB805A2B00F0C080A6E151
:10569000852B00F0E680C0F0DF80FF2B40F09F817B
:1056A000D278774B9FE140F2FF70D17803E0D17858
:1056B000724B01205970BDE8384002F088BFD4F821
:1056C00003301C20D3616F4909E0E1780520517156
:1056D000F1E7D2F8033069490C2041F80C3F04226D
:1056E000BDE8384002F0D2BF644DD2F803302946FD
:1056F00041F8083F082054E0D278604B0AB9DA75C7
:1057000003E061490122DA754A601720D97DD2E7AA
:10571000D1785A4B02209970CDE7D178574B15209C
:105720005975C8E7D2F80310544CC9B219206176F4
:1057300002F04DFF607E10F001000EBF01462846CA
:10574000012106F053FB637E012003F0020303F006
:10575000FF0103B10146BDE8384006F047BBD178F0
:10576000464B16209975A6E7444B1A7D1D4612F04C
:10577000010F04D0E378DB0701D402F08CFEE1785E
:105780001420297597E7D2F803303C49202041F8CE
:10579000203FA4E7394DD2F80330294641F8103FA5
:1057A0001020042202F072FF384B1B78002B40F0CF
:1057B0001B816879A9682A69BDE8384003F024BBD9
:1057C000D2F80330012B00F20C812B4B2B49DB78F4
:1057D0001A2001F81A3F012282E7D2F80330012B88
:1057E00000F2FF80244B2549DB781B2001F81B3F8A
:1057F000F1E7D3782149272001F8273FEBE7D2F8DA
:1058000003301E49242021F8243F022268E71B4D63
:10581000D378294601F8283F2820012202F036FFDC
:1058200095F8280010F001000EBF0146002001216C
:1058300006F0EEFA95F82830012003F0020303F099
:10584000FF0103B10146BDE8384006F0E1BAD2F8E5
:1058500003200F4B9A6038BDD2F803200D4B1A601D
:1058600038BDD2F803200A4B54E051780A4BD2F8E5
:10587000032043F8212038BD940A002004000020B2
:10588000A60C002020000020AC0C0020E810002016
:1058900064050020A80C0020D00C002053782E2B8B
:1058A00000F29D80DFE803F018212A9B9B9B9B9BC5
:1058B0009B33383D42474C9B9B9B9B9B9B9B9B9B5D
:1058C0009B9B9B5153555C5E60626466686A6C7317
:1058D000787D82878C919600444BD4F803201A601F
:1058E00003F0CEFC424B186138BD404BD4F8032086
:1058F0005A6003F0C5FC3E4B586138BD3B4BD4F8B1
:1059000003209A6003F0BCFC394B986138BDD4F891
:105910000320364BDA6038BDD4F80320334B1A61CC
:1059200038BDD4F80320314B5A6138BDD4F8032078
:105930002E4B9A6138BDD4F803202C4BDA6138BD68
:10594000D4F80320294B1A6238BD002002E0002061
:1059500017E00120D4F80310BDE8384006F041B943
:1059600001200EE00220F5E702200AE00320F1E723
:10597000032006E00420EDE7042002E00520E9E72B
:105980000520D4F80310BDE8384006F063B9D4F818
:105990000320164B5A6238BDD4F80320134B9A6289
:1059A00038BDD4F80320114BDA6238BDD4F8032097
:1059B0000E4B1A6338BDD4F803200C4B5A6338BD24
:1059C000D4F80320094B9A6338BDD4F80320074B61
:1059D000DA6338BDD4F80320044B1A6438BD0322BF
:1059E00000E00422034B1A7038BD00BFA41200204F
:1059F00064050020AC0C00202DE9F8430546144650
:105A00000F4600295BD0002859D0814257D0022A86
:105A10008ABFD11E5101490194BF0026012641F0E1
:105A20000601C9B2304606F0A5F9022C8ABFE11E74
:105A30006101490141F00C01C9B28146304606F0CE
:105A400099F9804628460BF025F8054638460BF0B4
:105A500021F8014628460BF029F9074648460BF085
:105A600019F839460BF022F90BF032FA0546404698
:105A70000BF010F839460BF019F90BF029FA002D4C
:105A800008BF01250F49002814BF80464FF00108C8
:105A900038460BF0F5F918B12046414605F07FFF76
:105AA000022C8ABFE11E6101490141F006012A462C
:105AB000C9B2304605F04FFE034B01221A55BDE82E
:105AC000F88300BF0000A0416405002038B50F4BEB
:105AD00004461A5C1D46BAB102288ABFE11E610164
:105AE00049010B4B41F0060194BF0020012053F8FF
:105AF0002420C9B205F01DFE064BE0B253F8241075
:105B000005F04DFF00232B5538BD00BF6405002074
:105B1000D0100020B80C00202DE9FF4704F096FCBF
:105B200008B1062278E2B74CA078052803D963783B
:105B3000022B40F025816378032B00F26C82DFE8B2
:105B400013F004006F00F6001E02FFF7BFFFA178FC
:105B5000AD4A00235354AD4A022953544FF0010279
:105B600002FA01F2AA4B88BF033918784FEA4111B3
:105B700020EA02021A7094BF00200120C9B2D4F8B2
:105B800003201E4605F0E7FDA1780022022988BF08
:105B9000033994BF0020012088BFC9B205F0A7FED9
:105BA0009C4FA37807EB43139B7F002B00F03682BA
:105BB0000025A3789D422FD04FEA451907EB090233
:105BC00007EB4313927F9B7F9A4225D12846FFF72C
:105BD0007DFF0123AB40022D88BFE91E327888BFCC
:105BE000490194BF4FF000084FF0010888BFC9B2C7
:105BF00022EA030398BF5FFA89F14046D4F80320F4
:105C0000337005F0A8FD022D8ABFE91EE9B2C9B2C2
:105C10004046002205F06BFE0135062DC9D1FDE19D
:105C2000FFF754FFA178784A00235354774A02299A
:105C3000535488BF03394FEA411141F0020194BF28
:105C400000200120C9B206F095F8A17801228A400F
:105C50006F4BD4F8035002290544187888BF0339E4
:105C600020EA02024FEA41111A7094BF002001207D
:105C7000C9B22A46994605F06EFDA1780022022994
:105C800088BF033994BF0020012088BFC9B205F046
:105C90002EFE614BA2785D605E4B03EB4212927F59
:105CA0009A46002A00F0BA81FD260025A078854298
:105CB00037D04FEA45180AEB08020AEB4013927FEF
:105CC0009B7F9A422DD1FFF701FF022D88BF710102
:105CD00094BF0027012794BF48F0020141F0020160
:105CE000C9B2384606F046F80123AB4099F80010D7
:105CF000022DD4F8032021EA030388BF7101024476
:105D000094BF5FFA88F1C9B2384689F8003005F0CF
:105D100022FD022D94BFE9B231463846002205F03B
:105D2000E6FD01350136062DF6B2BFD176E110F061
:105D3000C00527D1052823D8D4F80330142B1FDC45
:105D4000062202FB0303354A52F82360FFF7BEFE2A
:105D50002C4B012299782C4B8A405D542B4B022905
:105D60005D542B4B88BF033918784FEA411120EA64
:105D700002021A7094BF00200120C9B232463BE1F2
:105D8000042249E1402D40F0B980D4F80380B8F1F5
:105D9000140FF5DC00250195029503952B4640FA7A
:105DA00003F2D10706D504AA2A440135032D02F8CF
:105DB000103C02D00133062BF1D10026AE422FDA7F
:105DC0001DF806703846FFF781FE022F8ABFF91EC4
:105DD0007901490141F0020194BF00200120C9B2BC
:105DE00005F0C8FF062303FB08770C4B01AA53F804
:105DF0002730C01A80EAE073A3EBE07342F8263044
:105E00000136DBE7940A002042110020B81100207F
:105E100005110020C8110020AC0C0020A00A0020B1
:105E2000012D35DD022D019E029D08D1AE4201DD1E
:105E3000304628E0284631469DF8002026E0AE4254
:105E4000039F0EDDBE4207DD304629469DF8012046
:105E5000FFF7D2FD30460DE0384631469DF8002070
:105E60000EE0BD429DF8002008DD28463146FFF7D0
:105E7000C3FD284639469DF8022007E038463146E2
:105E8000FFF7BAFD38469DF801202946FFF7B4FD1B
:105E90000025A3782B41DA072CD5624B0622D3F8D4
:105EA0000330614902FB0352604B022D53F822205C
:105EB0004FF000036B545E4994BF002601266B54DB
:105EC0004FF0010101FA05F15A4B187820EA01015F
:105ED00019708ABFE91E69014901C9B2304605F04F
:105EE0003AFC022D8ABFE91EE9B2C9B2304600224F
:105EF00005F0FDFC0135062DCBD18FE0802D40F063
:105F00008D80D4F80330142B3FF73AAF0025A378E7
:105F10002B41DB072FD5434B0622D3F8033028460D
:105F200002FB0352414B53F82270FFF7CFFD3E4A6C
:105F30000023AB543E4A022DAB544FF0010202FA4B
:105F400005F23C4B94BF002601261978304621EA21
:105F500002028ABFE91E69014901C9B21A703A46B4
:105F600005F0F9FB022D8ABFE91EE9B2C9B230463D
:105F7000002205F0BCFC0135062DC8D14EE010F022
:105F8000C00F4BD1052849D8D4F80330142B45DC79
:105F900002288ABFC11E4101490194BF0023012389
:105FA00041F00201C9B2184605F0E4FEA378D4F826
:105FB0000320062101FB02311C4A52F821500544FE
:105FC0001846FFF783FDA178174A00235354184A57
:105FD000022953544FF0010202FA01F2154B88BF17
:105FE000033918784FEA411120EA02021A7094BF6F
:105FF00000200120C9B22A4605F0ADFBA17800229D
:10600000022988BF033994BF0020012088BFC9B28C
:1060100005F06DFC02E00322074B1A7004B0BDE8E6
:10602000F08700BF940A002042110020A00A00203F
:10603000B811002005110020AC0C0020F7B5BC4EB3
:10604000BC4F327864233B70D6F80330222A7A7032
:106050007B6035463C4601F02C825FD80F2A00F069
:1060600041862AD8072A00F0AE8114D8032A00F00E
:106070006B8107D8012A00F0C180022A00F00A8152
:1060800001F076BC052A00F0968100F29881FFF7B6
:1060900043FD01F06FBC0B2A00F0658506D8092A84
:1060A00000F00C8440F2B28200F00CBC0D2A00F02B
:1060B0008D8540F2758500F0EEBD192A00F05187FC
:1060C00014D8152A00F0A58607D8132A00F04686B2
:1060D000142A00F07C8601F04BBC172A964A00F087
:1060E000268700F23187136201F044BC1E2A00F0BB
:1060F0004B850CD81B2A00F05687C0F043871C2A1A
:1061000041F036848C4B00221A7701F033BC202AF0
:1061100001F0FE8041F2AE8001F066B9812A01F003
:10612000548235D8412A01F03E8217D8252A01F041
:10613000FB8107D8232A01F0C381242A01F0C781FB
:1061400001F016BC272A01F01D82C1F0F681402A19
:1061500041F00E8403F027FC01F00CBC452A01F04D
:106160002B8208D8432A01F0218201F2228203F017
:106170001CFC01F0FFBB472A01F02482C1F01F8202
:10618000802A41F0F5836C4B00221A7701F0F2BBB4
:10619000882A01F097821BD8842A01F047820DD803
:1061A000822A01F02682832A41F0E283624B002199
:1061B00083F8481083F8301101F01FBA862A01F0E5
:1061C000468201F2C7825C4B00221A7701F0D2BBF3
:1061D0008C2A01F01A8306D88A2A01F0FA8241F249
:1061E000E08201F00DBBF22A01F07683FF2A01F074
:1061F000B6838D2A41F0BC8301F02BBBB378052B0D
:106200004BD804F023F918B10623237001F0B2BB78
:10621000FD260446AB789C420AD0484A02EB431361
:106220009B7F002B2FD002EB4412927F9A422AD1FF
:10623000414B0122E254424A0023022CA354414A1A
:1062400094BF0027012794BFE1B23146A3543846DA
:10625000022205F04CFB022C94BF6101710141F058
:106260000601C9B2384640F2FF7205F062FA022C0C
:1062700094BF6101710141F00801C9B23846D5F8F7
:10628000032005F056FA01340136062CF6B2C1D1CE
:1062900001F070BBB378052B03D90423237001F000
:1062A00069BB04F0D3F80028AED1FD260446AB78D4
:1062B0009C420AD0214A02EB43139B7F002B30D033
:1062C00002EB4412927F9A422BD11B4B0122E254E3
:1062D0001B4A0023022CA3541A4A94BF002701270B
:1062E00094BFE1B23146A3543846022205F0FFFACA
:1062F000022C94BF6101710141F00601C9B2384618
:1063000040F2FF7205F015FA022C94BF6101710191
:10631000D5F8032041F00801C9B23846524205F0D1
:1063200008FA01340136062CF6B2C0D101F022BBC6
:10633000940A0020AC0C002064050020C811002045
:10634000B811002042110020B378052BA5D80024F5
:10635000AB789C4209D0CD4A02EB43139B7F2BB311
:1063600002EB4412927F9A4220D1C94A0023A354DF
:10637000C84AE6B2A354304605F0F0F8022C88BFB4
:10638000F11E94BF002701278CBFC9B231463846A1
:10639000022205F0ACFA022C8ABFF11E71014901FC
:1063A00041F00801C9B2384605F04EFA0134062C16
:1063B000CED101F0DFBAFEF7BDFA01F0DBBAFEF78D
:1063C0000DFE01F0D7BAB3787278052B3FF665AFB2
:1063D0009A2A2ED8992A80F0B580822A00F09880D7
:1063E0000BD8062A78D003D8042A6FD0052A0BE0F0
:1063F000072A7FD00C3A012A13E08C2A00F08E8005
:106400000AD8832A62D0862A40F0FC8018460C21E4
:1064100005F095FB01F0AEBA8D2A00F08D80933A1D
:10642000022A00F2EF801846142105F088FB01F0E3
:10643000A1BAC72A50D01AD8C12A00F0978005D82F
:10644000B52A00F08580C02A54D0DBE0C22A00F0D3
:106450009780C32A40F0D6808C49580101EB431144
:1064600044300431042202F011F901F083BAD22A37
:1064700000F09E8013D8C82A00F08C80CC2A40F00F
:10648000C180824A580111180E311044081A023393
:1064900000EB4310022202F0F9F801F06BBAD52AA2
:1064A00000F09480D62A00F09F80D42A40F0AA8081
:1064B000764A5801111814311044081A023300EBBF
:1064C0004310042202F0E2F801F054BA1846062103
:1064D00005F035FB01F04EBA6C4A590150180930ED
:1064E0000A44801A023300EB4310517A02F06FF82D
:1064F00001F040BA654A590150180A300A44801A1E
:10650000023300EB4310917A02F061F801F032BAE5
:106510001846042105F013FB01F02CBA5B4A580120
:1065200011180B311044081A023300EB43100122FA
:1065300002F0ACF801F01EBA18461A2105F0FFFA75
:1065400001F018BA1846182105F0F9FA01F012BA4C
:10655000580100F118024D49101A0233114400EBA2
:106560004310042202F092F801F004BA474A58019D
:1065700002EB43124830117A02F029F801F0FAB91F
:106580004249981C400101EB4311042202F07EF8BD
:1065900001F0F0B93D4A580111181F311044081A92
:1065A000023300EB4310012202F070F801F0E2B96F
:1065B000580100F110023549101A0233114400EB62
:1065C0004310042202F062F801F0D4B92F4A5801B6
:1065D00011181E311044081A023300EB4310012237
:1065E00002F054F801F0C6B9284A580111181C31BC
:1065F0001044081A023300EB4310022202F046F85E
:1066000001F0B8B90323237001F0B4B9B3787278FC
:10661000052B3FF642AE952A4ED8932A80F0CF80C4
:106620000D2A0DD80C2A80F0CA80052A00F09A8025
:1066300001D8042A0CE0062A00F0B380072A53E0B0
:10664000862A00F08F802BD8822A00F0BE80832A11
:1066500040F030810621184605F046FAAC78022C4D
:106660008ABFE11E6101490141F00601C9B294BF30
:106670000020012005F023F9074B084A43F82400C5
:10668000AB780021D15401F075B900BFC8110020CA
:10669000B811002042110020D01000206405002015
:1066A0008C2A00F098808D2A40F0048118461A2127
:1066B00005F01AFA01F05EB9C32A00F0C68023D8AB
:1066C000B52A00F0A08009D8993A012A00F2F28098
:1066D0001846182105F008FA01F04CB9C12A00F05B
:1066E000A08000F2A880C02A40F0E480BF4A5C018C
:1066F00011190A311444081B023300EB431002F055
:106700003FF8A07201F036B9CC2A00F0A98012D867
:10671000C72A46D0C82A40F0CD80B44A5801111883
:106720001F311044081A023300EB4310012202F01B
:1067300040F801F01FB9D52A00F0A080D62A00F059
:10674000AB80D42A40F0B680A84A58011118143101
:106750001044081A023300EB4310042202F029F817
:1067600001F008B90C21184605F0BEF9AC78022CEE
:106770008ABFE11E6101490141F00C0194BF002074
:106780000120C9B205F09BF8994B9A4A43F82400BE
:10679000A8780021115453F8201005F000F901F0F9
:1067A000E9B8924A5C01111909311444081B0233FB
:1067B00000EB431001F0E4FF607201F0DBB8184613
:1067C000142105F091F901F0D5B81846042105F01F
:1067D0008BF901F0CFB8854C5A01A1180B31224436
:1067E000881A023300EB4310012201F0E2FF824BD2
:1067F000987804EB4014E17AC1F10801C9B203F0C2
:106800001FFB01F0B7B8580100F118027749101AC0
:106810000233114400EB4310042201F0CAFF01F0DF
:10682000A9B85801714C483004EB431401F0A8FF9B
:10683000207201F09FB86D49981C400101EB431193
:10684000042201F0B6FF01F095B86849580101EB48
:10685000431144300431042201F0ABFF01F08AB847
:10686000624A580111180E311044081A023300EB25
:106870004310022201F09DFF01F07CB85B4A5801F1
:1068800011181E311044081A023300EB4310012284
:1068900001F08FFF01F06EB8544A580111181C31F5
:1068A0001044081A023300EB4310022201F081FF6A
:1068B00001F060B80323237001F05CB8FEF77CFEA2
:1068C00001F058B8B2784C4B022A00F0BF80032A7E
:1068D00000F0C180002A40F02E815B78512B00F03F
:1068E00096802BD8472B71D013D8432B67D00AD86A
:1068F000412B5FD060D8402B40F01B8140F2FF70ED
:1069000001F03EFFE2E0452B3C4A5BD05CD8D36906
:106910000DE14C2B63D008D8492B5DD058D34B2BBD
:1069200040F00781354BDB7801E14F2B5AD06BD813
:106930004D2B40F0FE80314B5B7DF8E0802B75D015
:1069400013D8552B68D005D8532B2C4A62D070D958
:10695000937EECE0592B62D05A2B63D0572B40F03A
:10696000E880264B93F82730E1E0842B65D008D8E7
:10697000822B204A5DD05ED8137F1E1F7342734165
:10698000D5E0F02B5BD00DD8852B40F0D280194A92
:106990001B49D3684B4303F540533933D36023F08D
:1069A0000043C4E0FE2B4AD0FF2B40F0C280154BC1
:1069B0001B7847E0114B43E0104B5B78B7E00F4B7F
:1069C0001B79B4E05379B2E0D368B0E00B4B66E0DA
:1069D0000A4B93F82630AAE0084BDB7D32E0074BE8
:1069E0009B78A4E0054B5B7EA1E000BFC8110020AE
:1069F000B80C002064050020940A00200400002048
:106A00006D4EC641A60C0020894B9B7D8FE0884BC4
:106A10001B7D8CE013698AE0854BDB7E87E0844B2D
:106A20009B8C84E0824B93F8283080E0814B1B7F65
:106A30007DE0136A7BE0936879E07F4B29E07F4B30
:106A40001B7874E0003318BF012370E05A787C4B48
:106A500053F822306BE05B782E2B6AD8DFE803F026
:106A6000181B1E6969696969692124272A2D306903
:106A7000696969696969696969696933383A3C3E74
:106A800040424446484A4C505356595C5F62650048
:106A90006C4B1B684BE06B4B5B6848E0694B9B6839
:106AA00045E0684BDB6842E0664B1B693FE0654BA5
:106AB0005B693CE0634B9B6939E0624BDB6936E024
:106AC000604B1B6A33E0002005F0FDF8606034E0A5
:106AD000002012E00120F7E701200EE00220F3E79A
:106AE00002200AE00320EFE7032006E00420EBE7A2
:106AF000042002E00520E7E7052005F0FFF8E5E7C0
:106B0000504B5B6A13E04F4B9B6A10E04D4BDB6AC6
:106B10000DE04C4B1B6B0AE04A4B5B6B07E0494BAB
:106B20009B6B04E0474BDB6B01E0464B1B6C6360E7
:106B300003E0032300E004232370434B1B78002B66
:106B400000F01887414B62681A60414B2AB91A68F5
:106B500042F008021A6000F00DBF1A6822F0080225
:106B60001A6000F007BFB378022B15D17378372B6A
:106B70000ED8334903F5A770800001EB830104228E
:106B800001F084FD00F0F6BE7278142A40F22583ED
:106B90000323237000F0EEBE04233B7000F0EABE36
:106BA000B378022B0ED12B4B5B78372BF0D82449CE
:106BB00003F5A770800001EB8301042201F0F9FDC9
:106BC00000F0D8BE04233B7000F0D4BEB078052896
:106BD0003FF663AB6B781F4E012B25D002D3022BFF
:106BE0003ED054E003F032FC054600287FF40CABA5
:106BF000B07804F0ABFCB3782846834209D016493C
:106C000001EB4012927F52B101EB4311897F914217
:106C100005D1084A01218154104A002181540130D4
:106C20000628EAD100F0A6BE04F098FC00F0A2BE4F
:106C30000400002064050020A80C0020EC120020B5
:106C4000D00C0020A4120020A70C0020980C0020DB
:106C50009C0A0020940A0020C81100204211002044
:106C600004F084FC964B78601B78002B00F0828641
:106C7000944B1860944B1A6820B942F008021A60CD
:106C800000F078BE22F008021A6000F073BE032301
:106C90003B7000F06FBEB27812B1022A05D01DE041
:106CA0001846FDF7A2FC00F065BE884A5078072818
:106CB00008D81BB9FDF796FB00F05CBEFDF7AEFBF4
:106CC00000F058BEFF287FF463AF5D1C0ABF7D4B08
:106CD000D8B21878FDF7BEFB00F04CBE04233B7021
:106CE00000F048BEB378012B1CD005D3022B1DD178
:106CF0007078FDF7F7FB0EE07078082802D8FDF7F2
:106D0000BAFB08E00A2802D100237B6010E00B28C0
:106D100003D1FDF7E7FC60600AE0FF2808D1FDF72A
:106D200015FCF8E7707802F047FBF4E704233B70AA
:106D3000634B1B78002B00F01D86624B62681A6063
:106D4000614B2AB91A6842F008021A6000F012BEBC
:106D50001A6822F008021A6000F00CBE7178594AD5
:106D6000092925D8DFE801F005080B0E12181B1EB3
:106D7000212311680B441AE01168CB1A17E011683F
:106D80004B4314E0116891FBF3F310E0116891FBA1
:106D9000F3F003FB10130AE011680B4007E01168E1
:106DA0000B4304E011684B4001E01368DB431360C0
:106DB0001268454B2AB91A6842F008021A6000F0BE
:106DC000D9BD1A6822F008021A6000F0D3BD3D4A0E
:106DD00012689A423C4B196804DD21F0030141F02E
:106DE000040108E00BBF21F0060121F0050141F08C
:106DF000010141F0020119602AB91A6842F0080243
:106E00001A6000F0B7BD1A6822F008021A6000F09C
:106E1000B1BD72780C2A00F2AD85DFE802F00710F0
:106E200019222B343E475B646D767F00264A126838
:106E3000140740F19F85264A136200F09BBD224A49
:106E40001268100700F19685214A136200F092BD86
:106E50001D4A1268D10740F18D851D4A136200F06A
:106E600089BD194A1268D20700F18485184A136255
:106E700000F080BD144A1268570740F17B85144A20
:106E8000136200F077BD104A126812F0050F00F08F
:106E900071850F4A136200F06DBD0B4A12689607A8
:106EA00040F168850A4A136200F064BD064A126820
:106EB000950700F05F85064A136200F05BBD00BFD6
:106EC000A70C0020980C00209C0A0020940A0020A7
:106ED000640500209F4A1268D40640F14B859E4A03
:106EE000136200F047BD9B4A1268900640F142854C
:106EF000994A136200F03EBD964A1268510640F16D
:106F00003985954A136200F035BD924A126812061F
:106F100040F13085904A136200F02CBD8D4A126812
:106F2000D70540F127858C4A136200F023BD516AD2
:106F3000072900F21F85481C5062106A02EB81018C
:106F40008862136200F016BD526A834B002A00F07B
:106F50001185013A5A6203EB8202926A1A6200F0CA
:106F600009BD73782E2B04D87C4A0121D15400F03E
:106F700001BDFF2B7FF40CAE774B012283F8482034
:106F800000F0F8BC73782E2B04D8744A0021D15439
:106F900000F0F0BCFF2B7FF4FBAD6F4B002283F8B9
:106FA000482000F0E7BC6C4C94F8492082B95E1C84
:106FB0004FF00A0204D16A4B1B685A43E26401E0B5
:106FC0005343E36402F05CF90123206584F84930FF
:106FD0006B78042B00F2CE84DFE813F00500450047
:106FE0007F00C4001B0002F04BF9226DE16C801A97
:106FF00080EAE072A2EBE0728A42574B04D9002289
:1070000083F8492000F0B6BC1A6A013A1A6200F00F
:10701000B1BCA87804F0AAFA40B94E4B84F84900F4
:107020001A6822F010021A6000F0A4BCE36C4A4D0A
:10703000A3B102F025F92B6DEA6CC01A80EAE07367
:10704000A3EBE073934209D9002385F84930414B03
:107050001A6842F010021A6000F08CBC236A013BEF
:10706000236200F087BCA878022894BF002001208A
:1070700004F001FCAA780121022A92BF02FA01F36E
:10708000D31E5B0001FA03F313EA000609D00023C4
:1070900084F849302F4B1A6822F010021A6000F071
:1070A00069BCE26C2C4D9AB102F0EAF82A6DE96CE9
:1070B000801A80EAE072A2EBE0728A4208D9254B7E
:1070C00085F849601A6842F010021A6000F052BC5C
:1070D000236A013B236200F04DBCA8787C21022882
:1070E00094BF002001206A4604F0D2FBAA78022057
:1070F000022A8ABFD31E53005B0000FA03F39DF8F7
:10710000021013EA010709D0002384F84930114B1B
:107110001A6822F010021A6000F02CBCE26C0E4DCE
:107120009AB102F0ADF82A6DEE6C801A80EAE07236
:10713000A2EBE072B24208D9064B85F849701A6892
:1071400042F010021A6000F015BC236A013B236272
:1071500000F010BC9C0A00206405002014130020DD
:10716000980C0020A8787C21022894BF00200120E0
:107170006A4604F08DFBAA780120022A92BF02FA27
:1071800000F3D31E5B0000FA03F39DF8021013EA2C
:10719000010708D0002384F84930AB4B1A6822F06D
:1071A00010021A60E6E3E26CA84D92B102F068F8B2
:1071B0002A6DEE6C801A80EAE072A2EBE072B242B5
:1071C00007D9A14B85F849701A6842F010021A607D
:1071D000D0E3236A013B2362CCE3B678052E1DD8A9
:1071E000062000FB02609A4941F82030994B9B7EB3
:1071F000002B00F0BF83002A00F0BC83531E182030
:107200005843062303FB026200F5C36001EB8201D1
:1072100000EB8600042201F039FAABE3FF2E7FF485
:107220003CA88B4E8AB91825002405F5C060711959
:10723000204421440422043401F028FA182CF4D10B
:107240001835B5F5FC7FEFD194E300246B78182056
:107250005A1E5043062202FB034100F5C36000EBB7
:10726000840006EB81010422013401F00FFA062CA0
:10727000ECD17FE37378142B3FF68AAC764A927890
:10728000052A19D8062101FB0323714951F823204F
:10729000724B7A601B78002B00F06C83704B1A6085
:1072A000694B22B91A6842F008021A6062E31A6850
:1072B00022F008021A605DE3FF2A7EF4EEAF644E0E
:1072C0008BB91825002405F5C060711920442144AC
:1072D0000422043401F06DFA182CF4D11835B5F5F8
:1072E000FC7FEFD146E300246B7818205A1E5043F0
:1072F000062202FB034100F5C36000EB840006EBAD
:1073000081010422013401F054FA062CECD131E35E
:107310007778142F3FF63CACB678300634D500248D
:10732000A87840FA04F3D90715D5022894BF0020A5
:107330000120022C8ABFE11E61014901464B41F048
:107340000201C9B25E7804F015FD062303FB064670
:107350003F4B43F826003F4B9B7E8BB16B787BB154
:107360005A1E18205043062202FB0343384900F5F9
:10737000C36000EB840001EB8301042201F086F975
:107380000134062CCCD1F5E2052E3EF686AF022E56
:107390008ABFF11E7101490141F00201C9B294BFD7
:1073A0000020012004F0E6FC062101FB0766294BC2
:1073B000274A9B7E42F82600002B00F0DB826B7888
:1073C000002B00F0D782244818258478581E684383
:1073D00001FB034100F5C36002EB810100EB840077
:1073E000042201F053F9C5E272781D4B0A2A53D8E2
:1073F000DFE802F0060B11161C243A3F44494D0009
:1074000018491A6809680A4403E016491A680968A5
:10741000521A1A6040E013491A6809684A43F8E7AB
:1074200010491A68096892FBF1F2F2E70D4A1968EF
:10743000126891FBF2F002FB1012EAE7094A1168A8
:107440001A680A40E5E700BF9C0A00206405002096
:10745000A00A002004000020940A0020A70C0020AD
:10746000980C0020B40C00209E4A11681A680A4348
:10747000CFE79C4A11681A684A40CAE7994A1168DE
:10748000C943116008E01A6896490A6004E0954A09
:1074900018681168106019601A68934B22B91A684D
:1074A00042F008021A6065E21A6822F008021A60C7
:1074B00060E28E4B1B68C6F80330FDF73BFA59E2D9
:1074C0008A4B1B68C6F80330FEF776F852E27378F1
:1074D000052B00F24F82DFE803F003090F151B2193
:1074E000814B1A6802F00F021A6043E27E4B1A6861
:1074F00022F010021A603DE27B4B1A6822F0200253
:107500001A6037E2784B1A6822F040021A6031E2C2
:10751000754B1A6822F080021A602BE2724B1A68CF
:1075200022F480721A6025E272782E2A3FF630AB80
:107530006F4901EB820253651CE26D4B6B49D3F836
:1075400010210A60D3F8142166490A60D3F8182183
:1075500065491A62D3F81C210A60D3F820216549D5
:1075600083F84920D3F824211A65D3F82821DA6456
:1075700093F82C21885C08B101208854002283F8FC
:107580003021F7E1B378052B3EF687AE7278142AE6
:107590003FF6FEAA062101FB0233544A56491268FF
:1075A00041F82320E6E102F0FFF9E3E102F0FEF901
:1075B000E0E102F00DFADDE102F00BFADAE102F0AF
:1075C00009FAD7E102F007FAD4E1727812B1012A80
:1075D00004D00BE0464B01221A77CBE1B3F5006FE4
:1075E000BEF45BAE42490A770B62C3E103233B70F2
:1075F000C0E13F4B02221A77BCE13D4A4FF0FF3019
:1076000002F1540343F821003A4800234354013166
:107610002F29F2D113771362536282F84930334A2B
:107620001360304A1360304A1360A3E1334A127D7D
:10763000920709D4B3F5006FBEF42FAE2C4A042193
:107640001177C2F8343195E108233B7092E12C4A5E
:1076500001211170294A2B4C9178B3F5006F2170EC
:1076600026D2127D12F0010522D11846694600F09B
:10767000D1FE9DF80030257263709DF80130A37033
:107680009DF80230E3709DF8063023719DF80530B7
:1076900063719DF80430A3719DF80330E3710123F9
:1076A000E15C227A01330A44082B2272F8D161E1AD
:1076B00001230021E1540133082B124AF9D1137838
:1076C000137257E17378012B30D01DD3022B3ED1BA
:1076D0000B4B01221A70094B0A4A9B781370002346
:1076E0002CE000BFB40C00209C0A0020980C002065
:1076F0006405002014130020A00A002004000020CC
:107700009C0C00209D0C00209B4B01221A709B4B6F
:107710009B4A9B7813709B4B186800230133C11858
:1077200011F8011C082BD154F8D123E11722FA716A
:107730007B71DE222623BA713B711BE19249013332
:10774000194411F8091C082BD154F7D112E1032375
:107750003B700FE17378032B00F20C81DFE803F03C
:10776000020E191D894B1A7FFA7193F84920D3F83C
:107770003431BA711A0A7A713B71FBE0834B1A7F7C
:10778000FA7193F849201B6ABA711A0A7A713B712F
:10779000F0E07F4B1B687B60ECE07E4B1B687B60FE
:1077A000E8E07278002A40F0E5807B4A9178002971
:1077B00040F0E08040F2D242934240F0DB8040F261
:1077C000FF7000F004FF00F066FE0120FCF7FEFEF3
:1077D000D0E07278714B02B101221A70EA78704BD6
:1077E0001A706A4B93F838116E4B19706E4900236A
:1077F0000B706E490B706E4B19780A431A70B9E022
:10780000624B012283F83921B4E0757815B1012D5E
:107810000FD01BE0042240F2FB70694600F0C9FF64
:10782000009BD6F803209A4206BF01237B607D604F
:10783000A0E0B3782A2B06D140F2FB705D49042208
:1078400000F024FF96E003233B7093E003233B709A
:1078500090E07278032A3CD8DFE802F008022D3865
:107860004A480022D0F83C11054610E0474AD2F8B9
:107870003C11092907D8481CC2F83C0102EB8102DF
:10788000C2F8403176E009233B7073E001328A424E
:1078900070D04948960050F822409C42F6D1831996
:1078A000481E824204D25C68013243F8044BF7E779
:1078B000C5F83C015EE0354A0023C2F83C313E4A3F
:1078C000002199500433282BF9D153E00A237B601F
:1078D00050E003233B704DE07378812B4AD1B2789E
:1078E0002D4B922A46D19A79A32A43D15A79B42AA8
:1078F00040D11A79C52A3DD1DB78D62B3AD12F4B0E
:107900004FF400725A61C022C3F8102401F0EAFF5C
:1079100001F0B6FC044601F0B3FC001B0028B8BF20
:107920004042B0F57A7FF6DBFCF757FE05F0E8FE43
:10793000002006F0B9FB0021214805F0BAFA2048E2
:1079400005F01CFA1F4804F08FFD05F0F7FA4FF020
:10795000804006F0FFFB0020FCF738FE0AE040F212
:10796000D242934206D1094B012283F8682101E0FB
:107970000223237003B0F0BD9C0C00200400002003
:107980009D0C00200000002000400008640500203D
:10799000980C0020B40C0020940A00200411002050
:1079A00050110020FB12002048110020431300203A
:1079B00005110020970A0020A406002000080140BD
:1079C00008000240002401404849F8B500230B603C
:1079D0004749484A0B604849136253620B6082F87A
:1079E000493082F8483082F830311646434A4FF029
:1079F000FF3142F82310424A0024D45401332F2B84
:107A0000F4D1022C8ABFE11E6101490194BF002517
:107A1000012541F00601C9B2284604F0ABF9022C59
:107A20008CBFE11E6101374B88BF490141F00C0159
:107A300043F82400C9B2284604F09CF9A700324B51
:107A40000134062CD851DCD10024304BE0B203EBDA
:107A50004413D97A0134C1F10801C9B202F0F0F936
:107A6000062CF2D100232A4A002199500433B3F5A1
:107A7000806FF8D1274FBB7E8BB118250024264993
:107A800005F5C0602944204421440422043400F058
:107A900090FE182CF3D11835B5F5FC7FEED1FB7EA6
:107AA0002BB13B7903F0EF02012A0DD10EE04FF428
:107AB000A7641A49204621440422043400F079FEC8
:107AC000B4F5C36FF5D1ECE7212B01D1012300E020
:107AD000002386F869317B7D23B1FCF7EFFD08B107
:107AE000012300E000233377F8BD00BF980C00208D
:107AF000B40C0020640500209C0A0020B80500207A
:107B000014130020D0100020B80C0020C811002051
:107B1000D00C002004000020A00A002098070020BC
:107B2000F7B50F4E0F4CC6F803300F4B86460F4685
:107B3000B270002294E803001A708DE8030086F802
:107B400000E07770FEF77AFA21786368074A82F8D6
:107B50006A119DE8030084E80300184603B0F0BDF5
:107B6000940A0020AC0C0020A70C00206405002023
:107B7000014B93F86A01704764050020F7B51F4E6A
:107B8000024653780C4696E803008DE803001C4932
:107B900000270B7093786D464B70D3788B701379F8
:107BA0008B7153794B7193790B71D379CB70154BE2
:107BB0001F70FEF743FA144B1978334671B92170E0
:107BC00032786170A2707278E270F2792271B279C3
:107BD00062717279A2713279E27109E0012907D1EB
:107BE0003A460A4911444978A1540132082AF8D189
:107BF00095E8030083E8030003B0F0BDAC0C00205F
:107C0000940A0020A70C00209C0C00209D0C002052
:107C10002DE9F047A34B8EB01B78A34C13B994F811
:107C20006B3163B1A14B1B78062B08D00A2B06D011
:107C300003F0EF030F2B1CBF002384F8383194F8B6
:107C40003831994A591E0129994E41D89949012B39
:107C5000CA6814BF082307238DF8183094F86C31D4
:107C6000079232788DF8193000238DF81A30C2B996
:107C70008B688DF827208DF820308F4B19788DF880
:107C8000211059788DF82210D9798DF8231099791F
:107C90008DF8241059791B798DF825108DF8263030
:107CA0000AE0012A08D1854901330EAA595C1A4419
:107CB000082B02F8191CF6D1814B1B78002B40F0E1
:107CC000B88006A801F01AFA002800F08F83B0E00F
:107CD000032B2AD192F869511DBB33788BB9754FAC
:107CE000754DB87897F801802A78804490446A7876
:107CF0009044EA799044AA7990446A7990442A7928
:107D000020E0012B40F095806C4B585D013500F070
:107D10000FFF092DF8D18CE0072B6AD192F8693159
:107D200073B3654804F022FB83E0042BF4D1614F68
:107D3000614DB87897F80180002301226B702A709A
:107D40006B608044904400F0F3FE787800F0F0FE21
:107D5000287800F0EDFE687800F0EAFEE87900F09F
:107D6000E7FEA87900F0E4FE687900F0E1FE5FFA32
:107D700088F8287900F0DCFE404600F0D9FE58E093
:107D800032782ABB4B4B93F802C093F801804A4BE0
:107D90008DF800C01F785D78C444D8798DF80270E2
:107DA000674499798DF803503D445A798DF8040061
:107DB00028441B798DF8051001448DF806200A44EB
:107DC0008DF8073013448DF801808DF8083008E0F5
:107DD000012A06D1394A9A5C0DF803200133092B98
:107DE000F8D1374B1B7823B36846092101F0AEFD6B
:107DF0001FE0082B1DD1304A002301205370107062
:107E000053602C4A8DF80200917852788DF800105A
:107E10008DF801200A4402448DF803308DF80430B7
:107E20008DF805308DF806308DF807308DF8082074
:107E3000D7E7244B224F1A789946002A00F0978002
:107E4000214B224D1B78013B062B00F28C80DFE892
:107E500003F004043F8A8A8A6800164A29789368E6
:107E60008DF836108DF8303080238DF831308A232C
:107E70008DF8323000238DF833308DF834308DF8A2
:107E800035308DF829308DF82A30D36807210B93CF
:107E90003B788DF82810002B65D10AA801F02EF947
:107EA00061E000BFA60C002064050020940A0020B9
:107EB0009C0C002004000020AC0C00209D0C002035
:107EC000E810002043130020FB120020481100207E
:107ED000DFF834832A7898F8020098F801A08244E9
:107EE0000AF10A0A924400F023FE98F8010000F01B
:107EF0001FFE802000F01CFE8A2000F019FE0020EA
:107F000000F016FE002000F013FE002000F010FE2E
:107F10005FFA8AFA287800F00BFE504600F008FE5F
:107F200021E0B94B2A789878597880238DF80E3063
:107F30008A238DF80D108DF80F30014400238DF841
:107F400010308DF811308DF812300A313B788DF8F1
:107F500013200A448DF80C008DF814201BB103A8DF
:107F6000092101F0F3FC00232B7089F80030002375
:107F700084F83831337084F86B3194F8683113B178
:107F80000120FCF723FB94F83921A04B52B193F860
:107F90006921D2F1010238BF002283F86921002251
:107FA00083F839213B78002B44D106A801F0F0F882
:107FB00000283FD09DF81830062B3BD9944B9DF8F4
:107FC00020201A709DF821205A709DF822209A7066
:107FD0009DF823209A719DF824205A719DF8252040
:107FE0001A719DF82620DA709DF8193084F86C31EA
:107FF000854B1A69079B934203D1844B012283F876
:108000006B2101F03DF9834B00221860824B1A70FE
:108010009DF81830227F072B0CBF0123022384F820
:108020003831531E012B7D4B02D9052A40F0CC80FC
:108030000022E7E094F86951002D70D103A800F008
:1080400091FD00286BD000F0ABFD10B16F4B83F8B1
:108050006D5194F86D119DF80C004A1CD2B2214468
:10806000092A6A4B84F86D2181F86E0140F0DE80A8
:10807000002283F86D21644A93F86E315178994259
:1080800007D092F82710002900F0D0808B4240F0F2
:10809000CD8092F827209A4204BF012384F86B31E7
:1080A00000231A46594D05F5B771595C01330A444E
:1080B000082BD2B2F6D195F8763193422BD1544B9E
:1080C00095F86F211A7095F870215A7095F8712102
:1080D0009A7095F872219A7195F873215A7195F8F2
:1080E00074211A7195F87521DA7001F0C9F84C4BBA
:1080F0004C4A1860297F00231370032285F8382129
:108100004A1E012A85F86D31444A02D9052918BF53
:10811000012313708AE0042385F8383186E094F84F
:1081200069313A4D7BB13A4803F0D3FF58B101F0C1
:10813000A7F83B4B3B4A186000231370032285F8D5
:1081400038212A7F39E094F86961002E43D13B78C9
:10815000002B40D00AAD284601F0E2FB00283AD0BF
:1081600033463246E95C01330A44082BD2B2F9D1D6
:108170009DF8301091422BD1254B9DF829201A7083
:108180009DF82A205A709DF82B209A709DF82C207B
:108190009A719DF82D205A719DF82E201A719DF824
:1081A0002F20DA7001F06CF81D4B1E4A1860002376
:1081B0001370072284F83821227F511E01291946A5
:1081C000164B03D9052A01D001221BE019702DE0BE
:1081D00084F838312AE0237F0C4D013B012B25D850
:1081E0002B6AB3F5006F1FD2FCF768FAE0B1286A7A
:1081F0000749431C2B6200F00DF9092385F838313B
:10820000064B01221A7011E00400002064050020D2
:10821000940A0020E8120020E9100020A70C00209A
:10822000F0120020FA12002000232377237F714DE3
:10823000042B04D1704E3278170640F1AD8094F8CB
:10824000383113F0FB0F05D0082B03D0062B01D0DB
:10825000FDF7F4FE94F83831092B79D101F010F8CC
:10826000644A664D12692B68801A80EAE072A2EBBC
:10827000E0729A4208D9624B1A78012A04BF02229E
:108280001A7000F0FDFF206100F0FAFF63696A6870
:10829000C01A80EAE073A3EBE073934208D9584B0D
:1082A0005A78012A04BF02225A7000F0E9FF606187
:1082B00000F0E6FFA369AA68C01A80EAE073A3EBA6
:1082C000E073934208D94E4B9A78012A04BF0222E8
:1082D0009A7000F0D5FFA06194F84830002B37D099
:1082E000444B93F83021002A32D145498B5C022B54
:1082F0002BD1404B03F1540050F82200451C22D0F2
:10830000404983F82C2109680022C3F810113E4926
:108310000968C3F81411196A1862C3F818113B49A7
:108320000968C3F81C1193F8491083F84920C3F871
:108330002011196D0122C3F82411D96C83F8302162
:10834000C3F8281104E000238B5401322F2ACCD12A
:1083500094F83811274B092904D11A7F022A04BF47
:1083600005221A77D4F83C21224B002A3ED0092955
:108370003CD1197F012939D1186A00231D4901F523
:10838000A07454F82340A04202D105230B772DE0BE
:1083900001339342F2D129E095F8383113F0FB0F05
:1083A00024D0082B22D0062B20D0D5F83401184C2D
:1083B000D6F80330B0F5006F6270636012D23146B8
:1083C00000F03BF9D5F83401314600F0A8F830B19F
:1083D000D5F834310133C5F83431652300E0072383
:1083E000237003E00723237000232B770EB0BDE832
:1083F000F08700BF64050020940A0020A41200202A
:1084000014130020980C0020B40C00209C0A0020BB
:10841000AC0C0020C0EBC00038B500F500650020B2
:108420000C4602460321FCF7F7F90020C5F30721AB
:108430000246FCF7F1F90020E9B20246FCF7ECF93C
:10844000002001460246FCF7E7F9207000200146B3
:108450000246FCF7E1F96070002001460246FCF795
:10846000DBF9A070002001460246FCF7D5F9E07068
:10847000002001460246FCF7CFF92071002001469A
:108480000246FCF7C9F96071002001460122FCF7A1
:10849000C3F9A07138BD38B54FF40064002006213F
:1084A0000122FCF7B9F9002005210246FCF7B4F9D6
:1084B000002001460122FCF7AFF98307F3D5002025
:1084C00002210246FCF7A8F90020C4F30721024666
:1084D000FCF7A2F90020E1B20246FCF79DF9002565
:1084E000B5F13F0EDEF100024FF0000052EB0E023C
:1084F00001460135FCF790F9402DF1D1002005210E
:108500000246FCF789F9002001460122FCF784F9B4
:10851000C307F3D44034B4F5804FBFD138BDF7B5AD
:10852000C0EBC00000F5006500200C4602460321A8
:10853000FCF772F90020C5F307210246FCF76CF93D
:108540000020E9B20246FCF767F900200146024626
:10855000FCF762F90746002001460246FCF75CF989
:108560000646002001460246FCF756F90546002063
:1085700001460246FCF750F98DF803000020014641
:108580000246FCF749F98DF8040000200146024636
:10859000FCF742F98DF80500002001460122FCF7A6
:1085A0003BF923788DF80600BB420DD16378B342C6
:1085B0000AD1A378AB4207D1DDF80300D4F8033029
:1085C000C31A5842584100E0002003B0F0BD38B54E
:1085D000012204460D4600200621FCF71DF900206B
:1085E00005210246FCF718F9002001220146FCF79C
:1085F00013F98207F3D5002002210246FCF70CF99B
:108600000020C4F307210246FCF706F90020E1B27E
:108610000246FCF701F9002029460122FCF7FCF88C
:10862000002005210246FCF7F7F800200146012250
:10863000FCF7F2F8C307F3D438BD38B5C0EBC0057A
:108640000C4605F500600978FFF7C1FF05F601004B
:108650006178FFF7BCFF05F60200A178FFF7B7FFCE
:1086600005F60300E178FFF7B2FF05F60400217973
:10867000FFF7ADFF05F605006179FFF7A8FF05F6E6
:108680000600A179BDE83840FFF7A1BF2DE9F04110
:1086900004460F461646002006210122FCF7BCF8CE
:1086A000002005210246FCF7B7F800200146012210
:1086B000FCF7B2F88507F3D5002002210246FCF74B
:1086C000ABF80020C4F307210246FCF7A5F8002010
:1086D000E1B20246FCF7A0F80025B54242D00134D1
:1086E00014F03F08795D04D0721EA81A424242413C
:1086F00000E001220020FCF78FF8B8F1000F2FD125
:10870000731E9D422CD2002005210246FCF784F8FE
:10871000002001460122FCF77FF810F00100F2D1A1
:1087200006210122FCF778F8002005210246FCF71B
:1087300073F8002001220146FCF76EF88207F3D59A
:10874000002002210246FCF767F80020C4F307214D
:108750000246FCF761F80020E1B20246FCF75CF843
:108760000135BAE7002005210246FCF755F8002044
:1087700001460122FCF750F8C307F3D4BDE8F081AD
:1087800010B50446002003210246FCF745F80020FE
:10879000C4F307210246FCF73FF80020E1B202468D
:1087A000FCF73AF8BDE81040002001460122FCF732
:1087B00033B870B5044600200E4615460321024624
:1087C000FCF72AF80020C4F307210246FCF724F83E
:1087D0000020E1B20246FCF71FF80024AC420AD0A8
:1087E0006A1EA31A00205A4201465A41FCF714F8A7
:1087F00030550134F2E770BD37B50020052102463F
:10880000FCF70AF8002001460122FCF705F810F0F9
:108810007104F2D100F034FD054600F031FD401B3B
:108820000028B8BF4042B0F5FA6F09DA4CB940F2FF
:10883000FF70FFF7A5FFB0F142035C425C41ECE73B
:108840001CB1294B1B78002B3CD040F2FF7000215B
:10885000FFF7BDFEFFF71FFE002024494022FFF76F
:1088600015FF0024B42202FB04F0214900F58070BA
:10887000FFF70CFFA01C40011E4920220134FFF726
:1088800005FF062CEED1002301934FF4C36420466C
:1088900001A904220434FFF7F9FEB4F5FF6FF6D105
:1088A000002301934FF4A764204601A90422043455
:1088B000FFF7ECFEB4F5C36FF6D140F2FF70422132
:1088C000FFF785FE002009494022FFF772FF402490
:1088D00009492046214420222034FFF76AFFB4F5DD
:1088E000807FF5D103B030BD6C1100200400002062
:1088F00080120108601201088811002030B5054679
:1089000087B0554806F012F94FF40030012105F008
:10891000ABF90420012105F09BF90420002105F0AA
:10892000AFF90820002104F0ABFE03238DF80630D8
:1089300018230DEB03048DF80730042324F8143DAD
:108940004648214604F00DFE48238DF80730434881
:1089500008232146ADF8043004F003FE02A806F017
:1089600073F90B2D25D8DFE805F02406090C0F124A
:1089700015181B1E20224FF461531CE04FF4964340
:1089800019E04FF4E14316E04FF4164313E04FF4BF
:10899000614310E04FF496330DE04FF4E1330AE009
:1089A0004FF4613307E02E4B05E02E4B03E02E4BD6
:1089B00001E04FF416530293029B02A95B0826487C
:1089C000029306F0FDF82623002401258DF80030DF
:1089D000684607238DF801308DF802408DF803506A
:1089E00004F0CAFE1C4840F2FF3106F015FA224698
:1089F0001948282106F055F92A46174840F22771F0
:108A000006F04FF92A46144840F2266106F049F96B
:108A10002A46114840F2255106F043F922460E48F5
:108A200040F2244106F03DF922460B4840F646014B
:108A300006F037F92246084840F66A1106F031F987
:108A400022460548602106F02CF90348294606F025
:108A50001CF907B030BD00BF0044004000080140D1
:108A600090D0030020A1070040420F00684620F08C
:108A700007018D46294919B50B889C061AD5284B44
:108A8000DB68980701D58B8814E0264B1A68586874
:108A90000132202A08BF0022824205D01C68888843
:108AA0001919C0B208721A601F4A0A2111609A6A25
:108AB0001E4B1A60194803881A061BD51B4B1A68EF
:108AC000C2B9184BDC6A196B8C420FD014490224CE
:108AD0000C61196B4C1C1C63194491F83410C9B219
:108AE0008180196B202905D11A6303E040F22771B8
:108AF00006F0D7F8094803885B060BD540F22661DB
:108B000006F0AEF9074B1A6BDB6A9A4202D1044BAE
:108B100002225A61BDE81940854670470044004072
:108B200000080140DC060020481300204413002008
:108B30000A4BDA6A196B0132202A08BF00228A42E6
:108B40000AD0D96A194481F83400DA62044840F244
:108B50002771012206F0A5B8704700BFDC0600208F
:108B6000004400400A4B59681A6891420BD05A6879
:108B7000511C59601A44127A02705A68202A04D192
:108B800000225A6001E0002070470120704700BFBA
:108B9000DC060020014B9862704700BFDC06002015
:108BA000044B1A7802F0FF0012B100221A70012063
:108BB000704700BF4C13002008B5FBF70EFD044BB7
:108BC00000225A601A60BDE80840FBF704BD00BFF0
:108BD000DC06002010B5441E14F8010F10B1FFF799
:108BE000A7FFF9E710BD00BF684620F007018D46DA
:108BF00031B5264C264B25681B680135082D08BF6A
:108C000000259D4286B04FF0000037D001A903F047
:108C100097FF9DF80C302268042B1E4B03EB0212C9
:108C200006D1012151702168029A03EB011105E080
:108C3000002151702168019A03EB01114A609DF8EF
:108C40000D20022A226808BF012103EB021218BF7F
:108C50000021917022689DF80E1012019954002293
:108C6000216801A8104403EB01111144C07A0132BC
:108C7000082A0872F4D1054B1D6001E003F046FF9D
:108C800006B0BDE831408546704700BFDC130020C8
:108C9000501300205C130020684620F007018D4629
:108CA00031B5264C264B25681B680135082D08BFB9
:108CB00000259D4286B04FF0010037D001A903F096
:108CC0003FFF9DF80C302268042B1E4B03EB021271
:108CD00006D1012151702168029A03EB011105E0D0
:108CE000002151702168019A03EB01114A609DF83F
:108CF0000D20022A226808BF012103EB021218BFCF
:108D00000021917022689DF80E10120199540022E2
:108D1000216801A8104403EB01111144C07A01320B
:108D2000082A0872F4D1054B1D6001E003F0EEFE45
:108D300006B0BDE831408546704700BFDC13002017
:108D4000501300205C130020684620F007018D4678
:108D500031B52A4B2A4A1968126886B0914204D16B
:108D60000120002103F00CFE43E01A68254901EBC5
:108D70000212507800F0FF0248B104228DF80C2056
:108D8000002201921A6801EB0212526806E018688C
:108D90008DF80C2001EB00104068019002921A68D7
:108DA00001EB0212927802F0FF001AB102228DF854
:108DB0000D2001E08DF80D001A6812018A5C8DF813
:108DC0000E2000221C680D4801EB04141444257A7F
:108DD00001AC14440132082AE572F3D1036801336F
:108DE00003600368082B04BF0023036001A803F09D
:108DF000D3FD06B0BDE831408546704758130020CA
:108E000054130020E0130020F0B501388BB00F465A
:108E100015460C23072813D8DFE800F0100E0C0AC3
:108E20000812060402220CE004220AE0102208E0E4
:108E3000142206E0282204E0642202E0C82200E0B6
:108E400008228DF8143003238DF815300023ADF877
:108E500016208DF8133003F0A5FC4FF000700121AF
:108E600004F002FF0120014604F0F2FE0820012177
:108E700004F0EEFE0820002104F002FF4FF4EA1097
:108E8000012104F0FDFB03238DF8063018230AAC02
:108E90008DF807304FF4007324F8243D21467848BC
:108EA00004F05FFB042321468DF8073074484FF42B
:108EB000807300240126ADF8043004F052FB03A8AF
:108EC0008DF812408DF80C408DF80D608DF80E4035
:108ED0008DF80F408DF810608DF8116003F06FFC75
:108EE000B7F5006F8DF818408DF819408DF81A60AD
:108EF0000FDA7B01ADF81C304FF6FF73ADF81E4062
:108F0000ADF82030ADF82230ADF824408DF8266061
:108F10000DE04FF6FF73ADF81C40ADF81E40ADF804
:108F20002030ADF82230ADF824408DF8264006A858
:108F300003F0A4FC012300228DF818308DF81920CD
:108F40008DF81A3095B1B5F5006F0FDA6901ADF8FB
:108F50001E204FF6FF72ADF81C10ADF82020ADF8C2
:108F60002220ADF824308DF826300DE04FF6FF7149
:108F7000ADF81C20ADF81E20ADF82010ADF8221081
:108F8000ADF824308DF8262006A803F077FC0223E4
:108F90008DF818307B13FF0047F0040700260124EA
:108FA000ADF81E7006A84FF6FF77ADF81C308DF8AF
:108FB00019608DF81A40ADF82070ADF82270ADF848
:108FC00024608DF8264003F059FC0323B5428DF848
:108FD00018308DF819608DF81A4010DD6B13ED0014
:108FE00045F00405ADF81C30ADF81E50ADF820700A
:108FF000ADF82270ADF824408DF826400CE0042333
:10900000ADF81C60ADF81E30ADF82070ADF82270E0
:10901000ADF824408DF8266006A803F02FFC01244B
:1090200007260025142302A88DF808308DF8096062
:109030008DF80A508DF80B4004F09EFB152302A812
:109040008DF808308DF809608DF80A508DF80B40C6
:1090500004F092FB132302A88DF808308DF8096004
:109060008DF80A508DF80B4004F086FB2146022053
:1090700003F086FC1020214603F082FC0BB0F0BD0B
:10908000000C014037B50220002103F079FC1020CC
:10909000002103F075FC0021012003F071FC002485
:1090A0000725142301A88DF804308DF805508DF89C
:1090B00006408DF8074004F05FFB152301A88DF8EA
:1090C00004308DF805508DF806408DF8074004F007
:1090D00053FB132301A88DF804308DF805508DF84B
:1090E00006408DF8074004F047FB03F05BFB4FF0B0
:1090F0000070214604F0B8FD03B030BDF0B54378F0
:1091000087B00446426833B104238DF80C30002345
:109110000292019303E08DF80C3001920293A37840
:1091200003B102238DF80D3023788DF80E30002323
:10913000E11801AA1A44097A0133082BD172F7D138
:1091400001A803F029FC042816D10E4F0E4B3D68F0
:109150001B680135082D08BF00259D420ED03E68D2
:109160000A4B03EB061694E80F0086E80F00012077
:1091700001463D6003F004FC012000E0002007B040
:10918000F0BD00BF5413002058130020E01300204E
:1091900030B50D4B0D4C054622681B689A420ED027
:1091A00023685A1C22600A4A02EB03130FCB85E89E
:1091B0000F002368082B04D10023236001E0002066
:1091C00030BD012030BD00BFDC1300205013002053
:1091D0005C130020684620F007018D4601B5BDE80C
:1091E00001408546704700BF684620F007018D4664
:1091F00001B5124B19781A4679B15B680133536097
:109200000F4B1968013119600E4B196811B11968BB
:10921000013919600023137001E001221A700A4B12
:109220001A683AB11A68013A1A601B6813B9074BF9
:1092300001221A70BDE801408546704730070020C2
:10924000A80C002044130020481300204C130020D9
:1092500008B5042004F002FF48F6A04004F00AFF1D
:10926000012004F00DFF05480321002204F05AFB01
:10927000BDE80840012004F017BF00BF9AC30200F8
:10928000014B5868704700BF30070020F0B593B01D
:10929000032500240227424801A9ADF804708DF887
:1092A00006508DF8074004F05CF911233D4801A9F0
:1092B000ADF804308DF806508DF8074004F051F9F0
:1092C0000120014604F0B8FC01214FF4007004F0C5
:1092D000BFFC354803F052FD344B33480793344B01
:1092E00007A9089380230C934FF480730D934FF4D8
:1092F00080630E9320230F934FF40053109309942F
:109300000A950B94119403F0A9FD2748012103F05D
:10931000D0FD01264FF46023264802A9049302944D
:109320008DF80C608DF80D6005948DF8185003F0E1
:10933000C7F820480A2132462B4603F039F91D4868
:109340000E213A462B4603F033F92B4619480921E2
:109350002A4603F02DF9224616484FF4FC6103F02B
:10936000EEF81448314603F0E1F81248314603F0B4
:10937000D4F8104803F0ECF80E4803F0EEF800289B
:10938000FAD10C4803F0EDF80A4803F0EFF8002892
:10939000FAD10848012103F0EDF813B0F0BD00BF89
:1093A000000C014000100140080002404C24014024
:1093B0003807002000240140042805D0082807D0E1
:1093C00070B9084B188801E0064B588880B2704786
:1093D000044B988840F26B1380B2584300137047D7
:1093E0000020704738070020014B00221A607047A8
:1093F00040070020034B9B7A13B1034B05225A60B0
:10940000704700BF6C14002040070020014B04226D
:109410005A60704740070020034B1A7A202A04BF85
:1094200000221A72704700BF4007002070472128B1
:1094300010B508D1104B1B681B7803F07F03212B5C
:1094400010D0022010BD2028FBD10B4B0B4A1B680B
:109450001B78107203F07F03212B094B18BF0023E8
:109460000BB9EEE7074B044A0024126820469361CB
:1094700054829847204610BDCC140020400700209D
:10948000D5940008BD940008074B1B681B7803F0B7
:109490007F03212B06D100F0DF0002280CBF002043
:1094A0000220704702207047CC14002021B9022806
:1094B00034BF0020022070470220704720B9034BC0
:1094C00008221B681A82704701487047CC1400209C
:1094D0004400002020B9034B08221B681A82704701
:1094E00001487047CC1400204400002008B5032038
:1094F00006F058FC064B0246D8604FF488710548C8
:1095000006F002FABDE80840032006F0CABA00BF20
:1095100040070020D214002038B5334B00241B68CC
:10952000C0259C725D72DC72204606F029FA204646
:109530004FF4007106F041FA2046102106F054FA6B
:109540002046402106F0B0FB8021204606F09BFB20
:10955000204606F0D2FA254B204693F8341006F048
:10956000F0FB204606F09DFA0120214606F025FA80
:109570000120294606F087FB0120202106F034FA5D
:109580000120214606F045FA02204FF4C06106F0A2
:1095900014FA02204FF4807106F075FB0220214678
:1095A00006F037FA0220202106F01EFA0320214699
:1095B00006F003FA03204FF4887106F075FB0320D0
:1095C000402106F0BEFB03204FF4405106F021FA83
:1095D0000320214606F008FA204606F033F8044B33
:1095E00001225A6038BD00BFCC1400204400002086
:1095F00040070020014905F01FBE00BF7C0000208D
:10960000014905F019BE00BF84000020054B1B680E
:10961000DB78042B04D8044901EBC30105F00CBE30
:1096200000207047CC1400208C00002008B50020DA
:1096300004F08CFABDE808404FF40000012104F06A
:1096400013BB024B03225A60704700BF4007002043
:10965000044B9A7A044B0AB1052200E001225A60B9
:10966000704700BF6C1400204007002007B514238A
:109670008DF8043000238DF805308DF8063001A8F0
:1096800001238DF8073004F077F803B05DF804FB90
:1096900020B105484FF4806103F0CBBF02484FF47E
:1096A000806103F0C8BF00BF0008014070476846F2
:1096B00020F007018D4679B5154D164B2A681C46DA
:1096C00092B21A80144A188811881646014011F483
:1096D000806F05D04FF6FF332B60104BDB68984747
:1096E000238832881340990507D54FF6FF532B6026
:1096F0000B4B197C0131C9B2197423881A40130429
:1097000001D506F007F8BDE879408546704700BFEF
:10971000445C004062140020121500204400002028
:109720004007002008B509484FF4806103F081FF2D
:10973000074B01221A60074A002007491860106091
:109740004FF4E0520A801A6008BD00BF00080140D3
:10975000405C0040445C004012150020084B10B5EE
:109760001B6800249C72FFF7DDFF064B064A1C6055
:109770004FF406431380054A1360054B5C6010BD2F
:10978000CC140020445C004012150020405C0040D6
:109790004007002038B5064D01232B60054B0024FF
:1097A0001C602046FFF774FF03232B60204638BD62
:1097B000405C0040445C0040074B1A6892B242F0A3
:1097C00008021A601A6892B242F004021A60034B4F
:1097D00003225A60704700BF405C004040070020F1
:1097E00010B5064C4FF6FB73226813402360FFF759
:1097F0002FFF4FF40643236010BD00BF405C0040C4
:1098000010B51E4C072818BF20702378052B32D8BE
:10981000DFE803F003060A0E1621FFF7E1FF2AE056
:10982000FFF7DEFF042327E002236370032323E016
:109830006378013BDBB263706378F3B9042217E00D
:109840000F4B1A6892B242F010021A60052323707F
:109850000A23637010BD6378013BDBB263706378E9
:109860005BB9074A4FF6EF7311680B40136006228D
:10987000024B1A7010BD0623237010BDD0140020B7
:10988000405C004007B5FFF7D1FEFFF7EFFE05F0A3
:1098900025FF0420012104F0DBF94FF48063ADF8CB
:1098A000043003238DF806300448102301A98DF8F5
:1098B000073003F056FE03B05DF804FB00080140DA
:1098C00007B514238DF8043000238DF805308DF88A
:1098D000063001A801238DF8073003F04DFF03B0D7
:1098E0005DF804FBFFF756BF0B4910B5CA6882B19B
:1098F0004B68052B0CD10023CC68A34204D2074C43
:109900001C5DC4540133F7E7034B0021D96000E02C
:109910000022104610BD00BF40070020D2140020D6
:10992000084BDA68082A1A460AD900230649595C06
:10993000C1540133092BF9D10023D36001207047B2
:109940000020704740070020D214002010B5084CBA
:109950000A46216092B2C02105F0BEFF0120218895
:1099600006F0CEF9BDE81040012006F08BB800BF2C
:1099700040070020704710B5FFF782FC074C2368B2
:10998000C01AB0F5FA7F07D9054BDA6882F4006295
:10999000DA60FFF775FC206010BD00BF14150020D1
:1099A000000C01407047704770477047054B064AEE
:1099B000D3F80310054B09B9928800E0128992B2DE
:1099C0005A607047940A0020006C0040AC0C0020E4
:1099D0007047704770477047F8B50F4B0D461E5CD7
:1099E000C1F3074100223046FAF716FF0B4C07027D
:1099F000C5F30721002230462760FAF70DFF3843F0
:109A00000702E9B2304601222760FAF705FF384322
:109A100007092760F8BD00BF611301085407002043
:109A200038B5484C0B2303FB004203FB004311797C
:109A30000433032984BF032111719A78032A84BF58
:109A400003229A700B2303FB004203FB0043117AAD
:109A500004320F2984BF0F2111715A7A0433072A67
:109A600084BF07225A710B2303FB004203FB004310
:109A7000917A04320F2984BF0F2191715A7B0C33E4
:109A80000F2A84BF0F225A700B2202FB004302FBF5
:109A90000042997B0C330F2984BF0F2199701379F1
:109AA0005279DB0343F40021A1641AB1254943F440
:109AB00004238B640B2101FB0041C979214B19B1AF
:109AC000996C41F4005199640B2372B903FB004374
:109AD000197A9A79C90141EAC2210433A26C5B79EF
